:04000000CBEF00F052
:100008003B82E9CF09F0EACF0AF0D9CF0BF0DACF7B
:100018000CF0F6CF0DF0F7CF0EF0F8CF0FF0F5CFCC
:1000280010F0F2A41AEF00F01CEF00F03DEF00F022
:10003800F294D768F60ED66E3AA025EF00F027EFB7
:1000480000F0B9EF00F03950D8B42DEF00F02FEFE1
:1000580000F030EF00F039063950D8A436EF00F040
:1000680038EF00F0B9EF00F03A903A82D59EB9EF38
:1000780000F09EA842EF00F044EF00F060EF00F0BF
:100088009E98000E01014A25D96EDA6A010EDA221D
:10009800DF50D8A452EF00F054EF00F057EF00F013
:1000A8009D9860EF00F0000E4A25D96EDA6A010EBD
:1000B800DA22DF50AD6E4A2B9EAA65EF00F067EF9B
:1000C80000F0B9EF00F0AECF11F011C0ADFF3AA4C7
:1000D80070EF00F072EF00F074EF00F0B9EF00F08D
:1000E8000A0E1118D8B47BEF00F07DEF00F090EF06
:1000F80000F00D0E1118D8B484EF00F086EF00F070
:1001080090EF00F04A0E01019519D8A48EEF00F087
:1001180090EF00F0B0EF00F04B0E01019525D96E7D
:10012800DA6A010EDA22DF6A9551D8B49EEF00F040
:10013800A0EF00F0ABEF00F03A84960E016E010ECE
:10014800026E4B0E036E010E046EDEEC08F0000E1C
:100158000101956FB9EF00F04B0E9525D96EDA6A5B
:10016800010EDA2211C0DFFF952B10C0F5FF0FC07A
:10017800F8FF0EC0F7FF0DC0F6FF0CC0DAFF0BC08A
:10018800D9FF0AC0EAFF09C0E9FF3B92110009EF55
:1001980009F03AA6D2EF00F0D4EF00F0CDEF00F06E
:1001A800680E01019619D8A4DCEF00F0DEEF00F02C
:1001B800EAEF00F09751D8A4E4EF00F0E6EF00F082
:1001C800EAEF00F06FEC07F0B8EF03F0560E96195F
:1001D800D8A4F1EF00F0F3EF00F0FFEF00F0975133
:1001E800D8A4F9EF00F0FBEF00F0FFEF00F0CAEC45
:1001F80009F0B8EF03F06D0E9619D8A406EF01F0D8
:1002080008EF01F022EF01F09751D8A40EEF01F0AA
:1002180010EF01F022EF01F0020E2118D8A417EF19
:1002280001F019EF01F01DEF01F0000E216E1EEF35
:1002380001F0212A93EC09F0B8EF03F0960E126E44
:10024800010E136EF70E146EFF0E156E000E176E6C
:10025800020E166E0CEC07F012501310D8A437EFEC
:1002680001F039EF01F0CDEF01F0960E126E010E9C
:10027800136E61EC09F0135007E1070E125CD8B059
:1002880048EF01F04AEF01F054EF01F06A0E1A6EE0
:10029800FF0E1B6E7CEC09F0D1EC09F0BAEF03F00D
:1002A800980E126E010E136EBBEC03F00009D8A471
:1002B80060EF01F062EF01F06CEF01F03B0E1A6E97
:1002C800FF0E1B6E7CEC09F0D1EC09F0BAEF03F0DD
:1002D8009B0E126E010E136EBBEC03F00009D8A43E
:1002E80078EF01F07AEF01F084EF01F0540E1A6E06
:1002F800FF0E1B6E7CEC09F0D1EC09F0BAEF03F0AD
:10030800980E126E010E136E5CEC04F012C0C4F06D
:1003180013C0C5F09B0E126E010E136E8FEC06F023
:100328000001C06FC4C015F0C5C016F0C0C017F0FA
:1003380012EC06F0C4C015F0C5C016F0BEEC07F00C
:100348000001C16F2150070DF350250FD96EDA6AED
:10035800DF50C1172150070DF350250FD96EDA6A07
:10036800DF50C017C051C119D8A4BDEF01F0BFEFCD
:1003780001F0C6EF01F0C1C012F0010EF7EC04F075
:10038800B8EF03F0C1C012F0000EF7EC04F0B8EFBC
:1003980003F0960E126E010E136EF40E146EFF0E1D
:1003A800156E000E176E020E166E0CEC07F012504A
:1003B8001310D8A4E2EF01F0E4EF01F02DEF02F002
:1003C800960E126E010E136E61EC09F0135007E1E0
:1003D800030E125CD8B0F3EF01F0F5EF01F0FFEF78
:1003E80001F0B20E1A6EFF0E1B6E7CEC09F0D1EC18
:1003F80009F0BAEF03F0980E126E010E136E5CEC62
:1004080004F012C0C4F013C0C5F0C4C015F0C5C0D4
:1004180016F0BEEC07F00001B96FC4C012F0C5C0F9
:1004280013F0AA0E146E8DEC05F0200E0001AE6FCD
:10043800AF0E126EB95150EC08F00A0E0001B16F00
:10044800000EB26FAA0E1A6E1B6A7CEC09F0B8EFA8
:1004580003F0520E01019619D8A435EF02F037EFD8
:1004680002F0F8EF02F09751D8A43DEF02F03FEF09
:1004780002F0F8EF02F0000E0001C56F000EC46F25
:100488002150070DF350260FD96EDA6ADF501F6E20
:10049800FC0E1F26010E206E1F2A55EF02F0D89081
:1004A80020361F2E53EF02F020500001BA6F000EC5
:1004B800BD6F000EBC6FE8EF02F0600E126EBC510B
:1004C80050EC08F0300E0001626F200E636F200EB2
:1004D800646F050EC36F000EBF6F000EBE6FBF5175
:1004E80009E1100EBE5DD8A07CEF02F07EEF02F0AD
:1004F80080EF02F0D5EF02F0C4C015F0C5C016F0C9
:10050800BEEC07F00001C26FC44BC52B2150070D8C
:10051800F350250FD96EDA6A040EDE18D8A497EFC7
:1005280002F099EF02F0C1EF02F0C351600FD96EEB
:10053800DA6A780EDF6EC32BC2C01FF00F0E1F16CB
:10054800090E1F64AAEF02F0ACEF02F0B6EF02F05A
:10055800C351600FD96EDA6AC2510F0B370FDF6EC5
:10056800BEEF02F0C351600FD96EDA6AC2510F0BA9
:10057800300FDF6EC32BCAEF02F0C351600F126E4B
:10058800C25150EC08F0020E0001C327C351600F9E
:10059800D96EDA6A200EDF6EC32BBE4BBF2B73EF0A
:1005A80002F0C351600FD96EDA6ADF6A600E1A6E04
:1005B8001B6A7CEC09F05B0E1A6EFE0E1B6E7CEC5F
:1005C80009F00001BC4BBD2BBA511F6E206A1F50A9
:1005D800BC5D2050BD59D8A0F4EF02F0F6EF02F050
:1005E80061EF02F0B8EF03F0630E9619D8A4FFEF9D
:1005F80002F001EF03F01AEF03F082B406EF03F004
:1006080008EF03F011EF03F08284DC0E1A6EFF0E80
:100618001B6E7CEC09F0B8EF03F08294E10E1A6EC1
:10062800FF0E1B6E7CEC09F0B8EF03F0960E126E0D
:10063800010E136EF10E146EFF0E156E000E176E7E
:10064800020E166E0CEC07F012501310D8A42FEF00
:1006580003F031EF03F070EF03F0960E126E010E07
:10066800136E61EC09F0135007E1030E125CD8B069
:1006780040EF03F042EF03F04CEF03F0B20E1A6EB6
:10068800FF0E1B6E7CEC09F0D1EC09F0BAEF03F019
:10069800980E126E010E136E5CEC04F012C0C4F0DA
:1006A80013C0C5F0C4C012F0C5C013F0B3EC08F015
:1006B800C4C012F0C5C013F0B30E146E8DEC05F073
:1006C8000A0E0001B76F000EB86FB30E1A6E1B6AE0
:1006D8007CEC09F0B8EF03F0960E126E010E136E63
:1006E800FC0E146EFF0E156E000E176E010E166EC0
:1006F8000CEC07F012501310D8A485EF03F087EF25
:1007080003F0B2EF03F0980E126E010E136EBBECFD
:1007180003F00009D8A493EF03F095EF03F09FEFDF
:1007280003F07E0E1A6EFF0E1B6E7CEC09F0D1EC06
:1007380009F0BAEF03F0980E126E010E136E8FECEB
:1007480006F0070B0001BB6FBB51C3EC09F0BBC03F
:1007580012F0010EF7EC04F0B8EF03F0900E1A6EE9
:10076800FF0E1B6E7CEC09F0D1EC09F0120012C0F0
:10077800D9FF13C0DAFF2F0EDF64C5EF03F0C7EF10
:1007880003F057EF04F012C0D9FF13C0DAFF670E69
:10079800DF60D1EF03F0D3EF03F057EF04F012C09E
:1007A800D9FF13C0DAFF460EDF64DDEF03F0DFEF99
:1007B80003F0EBEF03F012C0D9FF13C0DAFF600EAD
:1007C800DF64E9EF03F0EBEF03F057EF04F012C03A
:1007D800D9FF13C0DAFF390EDF64F5EF03F0F7EF46
:1007E80003F003EF04F012C0D9FF13C0DAFF400E84
:1007F800DF6401EF04F003EF04F057EF04F020EE9C
:1008080001F01250D9261350DA222F0EDF640FEFB1
:1008180004F011EF04F057EF04F020EE01F012504D
:10082800D9261350DA22670EDF601DEF04F01FEFA0
:1008380004F057EF04F020EE01F01250D9261350BF
:10084800DA22460EDF642BEF04F02DEF04F03BEFC5
:1008580004F020EE01F01250D9261350DA22600E6F
:10086800DF6439EF04F03BEF04F057EF04F020EEBB
:1008780001F01250D9261350DA22390EDF6447EFFF
:1008880004F049EF04F05AEF04F020EE01F01250A2
:10089800D9261350DA22410EDF6055EF04F057EFE6
:1008A80004F05AEF04F0000E5BEF04F0010E1200A2
:1008B800000E196E000E186E040E176EE9EF04F0A4
:1008C80012C0D9FF13C0DAFF2F0EDF646EEF04F0F9
:1008D80070EF04F0F2EF04F012C0D9FF13C0DAFF92
:1008E800670EDF607AEF04F07CEF04F0F2EF04F0BB
:1008F80012C0D9FF13C0DAFF460EDF6486EF04F09A
:1009080088EF04F094EF04F012C0D9FF13C0DAFFA7
:10091800600EDF6492EF04F094EF04F0F2EF04F05D
:1009280012C0D9FF13C0DAFF390EDF649EEF04F05E
:10093800A0EF04F0AEEF04F012C0D9FF13C0DAFF45
:10094800410EDF60AAEF04F0ACEF04F0AEEF04F064
:10095800F2EF04F0183A193AF00E191618500F0B66
:100968001912F00E181612C0D9FF13C0DAFF3A0E8A
:10097800DF60C1EF04F0C3EF04F0D5EF04F012C05C
:10098800D9FF13C0DAFFDF50146ED00E1424156E91
:10099800166AFF0E16221550181216501912E7EF94
:1009A80004F012C0D9FF13C0DAFFDF50146E5F0ED7
:1009B8001416C90E1424156E166AFF0E1622155049
:1009C800181216501912124A132A17061728D8A4F3
:1009D800F0EF04F0F2EF04F064EF04F018C012F046
:1009E80019C013F01200136E000E01014A6F1304B0
:1009F800D8A401EF05F003EF05F020EF05F0000E95
:100A08004A25D96EDA6A010EDA224F0EDF6E4A2BBA
:100A1800000E4A25D96EDA6A010EDA224B0EDF6E15
:100A28004A2B000E4A25D96EDA6A010EDA22200E08
:100A3800DF6E4A2B34EF05F0000E4A25D96EDA6ACC
:100A4800010EDA22450EDF6E4A2B000E4A25D96EBA
:100A5800DA6A010EDA22520EDF6E4A2B15EF05F024
:100A680012380F0B0F0B146E090E14643EEF05F0CD
:100A780040EF05F04CEF05F0000E4A25D96EDA6A12
:100A8800010EDA221450370FDF6E4A2B57EF05F0AC
:100A9800000E4A25D96EDA6A010EDA221450300F98
:100AA800DF6E49EF05F00F0E1216090E12645FEFA4
:100AB80005F061EF05F06DEF05F0000E4A25D96EDF
:100AC800DA6A010EDA221250370FDF6E4A2B78EFFE
:100AD80005F0000E4A25D96EDA6A010EDA221250A4
:100AE800300FDF6E6AEF05F0000E4A25D96EDA6A1C
:100AF800010EDA220A0EDF6E4A2B000E4A25D96E45
:100B0800DA6A010EDA22DF6A000E4A6FAC8A9D8823
:100B1800120012C015F013C016F00C0E176ED89004
:100B280016321532172E93EF05F01550186E090E70
:100B38001864A1EF05F0A3EF05F0ACEF05F0145031
:100B4800D96EDA6A1850370FDF6E142AB4EF05F041
:100B58001450D96EDA6A1850300FDF6EA9EF05F01D
:100B680013500F0B186E090E1864BDEF05F0BFEF98
:100B780005F0C8EF05F01450D96EDA6A1850370F2F
:100B8800DF6E142AD0EF05F01450D96EDA6A1850C7
:100B9800300FDF6EC5EF05F012C015F013C016F068
:100BA800040E176ED89016321532172ED6EF05F0B0
:100BB80015500F0B186E090E1864E5EF05F0E7EFF6
:100BC80005F0F0EF05F01450D96EDA6A1850370FB7
:100BD800DF6E142AF8EF05F01450D96EDA6A18504F
:100BE800300FDF6EEDEF05F012500F0B186E090E87
:100BF800186401EF06F003EF06F00BEF06F014504F
:100C0800D96EDA6A1850370FDF6E11EF06F01450FC
:100C1800D96EDA6A1850300FDF6E12003A96000E5D
:100C28001C6E828415C012F016C013F0B3EC08F0E5
:100C3800000E1E6E1E50C3EC09F02150070DF35034
:100C4800240FD96EDA6ADF50D8B42DEF06F02FEFF3
:100C580006F030EF06F082941EC018F01EC019F09E
:100C6800010E1A6E192A3BEF06F0D8901A36192E83
:100C780039EF06F01A5017141B6E182A46EF06F0C3
:100C8800D8901B32182E44EF06F01B501D6E2150D1
:100C9800070DF350270FD96EDA6A1D50DE18D8A455
:100CA80058EF06F05AEF06F060EF06F08186BAECCE
:100CB80009F0B1EC09F0819681B865EF06F067EFAD
:100CC80006F075EF06F01EC018F0010E196E182A0E
:100CD80070EF06F0D8901936182E6EEF06F01950FE
:100CE8001C122150070DF350240FD96EDA6ADF5019
:100CF800D8B481EF06F083EF06F084EF06F0828423
:100D08001E2A070E1E648BEF06F08DEF06F01EEF0D
:100D180006F03A861200000E166E020E156E01EFEE
:100D280007F012C0D9FF13C0DAFF2F0EDF649FEF60
:100D380006F0A1EF06F00AEF07F012C0D9FF13C0C2
:100D4800DAFF670EDF60ABEF06F0ADEF06F00AEFF3
:100D580007F012C0D9FF13C0DAFF460EDF64B7EF01
:100D680006F0B9EF06F0C5EF06F012C0D9FF13C0C0
:100D7800DAFF600EDF64C3EF06F0C5EF06F00AEF96
:100D880007F012C0D9FF13C0DAFF390EDF64CFEFC6
:100D980006F0D1EF06F0DFEF06F012C0D9FF13C05E
:100DA800DAFF410EDF60DBEF06F0DDEF06F0DFEF84
:100DB80006F00AEF07F0163AF00E161612C0D9FF21
:100DC80013C0DAFF3A0EDF60ECEF06F0EEEF06F044
:100DD800F7EF06F012C0D9FF13C0DAFFDF50D00FCB
:100DE8001612FFEF06F012C0D9FF13C0DAFFDF506A
:100DF8005F0BC90F1612124A132A15061528D8A414
:100E080008EF07F00AEF07F095EF06F0165012000A
:100E18001606D8A01706162806E11728D8A417EF33
:100E280007F019EF07F026EF07F0000E136E000E1B
:100E3800126E6EEF07F0124A132A144A152A160684
:100E4800D8A0170612C0D9FF13C0DAFFDF50D8B4F4
:100E580030EF07F032EF07F05DEF07F014C0F6FF50
:100E680015C0F7FF0800F5500009D8B43EEF07F0A9
:100E780040EF07F05DEF07F016501710D8B447EFB2
:100E880007F049EF07F05DEF07F012C0D9FF13C074
:100E9800DAFFDF50186E14C0F6FF15C0F7FF080020
:100EA800F5501818D8B45BEF07F05DEF07F01FEFA7
:100EB80007F012C0D9FF13C0DAFFDF50186E14C054
:100EC800F6FF15C0F7FF0800F550185C126E136A9C
:100ED800D8A013061200230E1A6EFE0E1B6E7CECB1
:100EE80009F0A70E1A6EFD0E1B6E7CEC09F0620E5F
:100EF8001A6EFD0E1B6E7CEC09F0D10E1A6EFF0EF9
:100F08001B6E7CEC09F0A10E1A6EFF0E1B6E7CECBA
:100F180009F0200E1A6EFF0E1B6E7CEC09F0C00E55
:100F28001A6EFE0E1B6E7CEC09F05D0E1A6EFE0E3C
:100F38001B6E7CEC09F0E60E1A6EFD0E1B6E7CEC47
:100F480009F0E40E1A6EFE0E1B6E7CEC09F0030E1F
:100F58001A6EFF0E1B6E7CEC09F01A0E1A6EFD0E4F
:100F68001B6E7CEC09F0C70E1A6EFC0E1B6E7CEC37
:100F780009F0120082843A96000E1B6E15C012F01A
:100F880016C013F0B3EC08F0000E1C6E000E196EBC
:100F98001C50C3EC09F08294D5EF07F00000000064
:100FA8000000192A1904176E090E1764DEEF07F0FE
:100FB800E0EF07F0D2EF07F0000E81B8010E1A6ECD
:100FC8001A50D8A4EAEF07F0ECEF07F0FAEF07F0B1
:100FD8001CC017F0010E186E172AF5EF07F0D8900D
:100FE8001836172EF3EF07F018501B1282841C2AAC
:100FF800070E1C6402EF08F004EF08F0CAEF07F0D0
:101008003A861B5012004B0E126E010E136E000E24
:10101800156E000E146E000E176E4B0E166E2AEC2F
:1010280009F0000E126E010E136E000E156E000E02
:10103800146E000E176E4B0E166E2AEC09F0000E99
:101048000F01386F000E396F000E3A6F8196828457
:1010580082888296818A000E926ED00E936EC00EA0
:10106800946E000E136E000E126EB3EC08F0D76883
:10107800F60ED66ED09EE00EF26E000ED56EF80E0D
:10108800D516D586030EAF6EB896AC84AC98AB8EE9
:10109800AB889D989D8A1200136E13380F0B146E3F
:1010A800090E14645AEF08F05CEF08F064EF08F0DA
:1010B8001250D96EDA6A1450370FDF6E6AEF08F0F3
:1010C8001250D96EDA6A1450300FDF6E13500F0BBE
:1010D800146E090E146473EF08F075EF08F07FEFD3
:1010E80008F01250D96EDA6A010ED9261450370F5B
:1010F800DF6E87EF08F01250D96EDA6A010ED92632
:101108001450300FDF6E120012C018F013C019F01F
:101118001450166E1550176E144A152A16C0F6FF8D
:1011280017C0F7FF000EF86E18C0D9FF19C0DAFF14
:10113800184A192A0F0EF76403D00800F55005D095
:10114800F6CFE9FFF7CFEAFFEF50DF6EDF50D8A404
:10115800B0EF08F0B2EF08F08CEF08F012008298B8
:10116800828812C037F013C038F012501310D8B468
:10117800C0EF08F0C2EF08F0DDEF08F0000E146EC3
:1011880013AEC9EF08F0CBEF08F0CEEF08F0828A73
:10119800CFEF08F0829A82868296D890123613365C
:1011A800142A0F0E1464DBEF08F0DDEF08F0C4EF2B
:1011B80008F0120001C007F002C008F00350056EE5
:1011C8000450066E034A042A05C0F6FF06C0F7FF5E
:1011D800000EF86E07C0D9FF08C0DAFF074A082AD0
:1011E8000F0EF76403D00800F55005D0F6CFE9FFDD
:1011F800F7CFEAFFEF50DF6EDF50D8A406EF09F013
:1012080008EF09F0E2EF08F012004C0EF66E130E2C
:10121800F76E000EF86E00EE21F010EE16F00900E1
:10122800F5CFEEFFE550E150FAE101EE00F0E00EF7
:10123800EE6AE806FDE13A6A396A386A376A3B902D
:101248003B92000EF86E000146EF09F012C018F04C
:1012580013C019F038EF09F018C0D9FF19C0DAFF28
:1012680014C0DFFF184A192A1606D8A01706162830
:1012780006E11728D8A443EF09F045EF09F030EF4D
:1012880009F0120007EC08F03A86900E1A6EFE0E6E
:101298001B6E7CEC09F0D1EC09F03AA456EF09F08A
:1012A80058EF09F051EF09F03A94819ACDEC00F02B
:1012B800818A51EF09F0CBEF00F012C014F013C08F
:1012C80015F069EF09F0124A132A12C0D9FF13C0AA
:1012D800DAFFDF50D8A473EF09F075EF09F067EF74
:1012E80009F01450125C126E15501358136E120048
:1012F8009DB881EF09F083EF09F07CEF09F0000E4B
:10130800126E010E136E1AC014F01BC015F088EC93
:1013180008F0000E01014A6FAC8A9D881200215026
:10132800070DF350220FD96EDA6ADECF1AF0DDCF3F
:101338001BF07CEC09F05B0E1A6EFE0E1B6E7CEC4B
:1013480009F0120001E5FF00FF050100E9FF010FA8
:10135800080100EDFF01FF0900FF3AA2B6EF09F00E
:10136800B8EF09F0B1EF09F03A921200D59ED768AC
:10137800F60ED66E020E396E3A80D58E1200126EB7
:10138800F80E81161250070B81121200C30E1A6E46
:10139800FF0E1B6E7CEC09F01200FA0E1A6EFF0E9F
:0813A8001B6E7CEC09F0120041
:10FCBE0000010008040201FFF677205B4141415D1F
:10FCCE0041205B645D643C456E7465723E202D2060
:10FCDE0077726974652068657861646563696D61C2
:10FCEE006C2076616C7565205B645D6420746F209A
:10FCFE0068657861646563696D616C2061646472C6
:10FD0E00657373205B4141415D410A0072205B4186
:10FD1E0041415D413C456E7465723E202D207265F9
:10FD2E0061642068657861646563696D616C2076D5
:10FD3E00616C7565206174206865786164656369BE
:10FD4E006D616C2061646472657373205B41414127
:10FD5E005D410A00486172647761726520504342CA
:10FD6E0020616E6420736368656D617469632061E0
:10FD7E00742068747470733A2F2F67697468756293
:10FD8E002E636F6D2F616669676C65652F52453303
:10FD9E0052543450726F670A004669726D77617201
:10FDAE0065206C6F6361746564206174206874747F
:10FDBE0070733A2F2F6769746875622E636F6D2F9B
:10FDCE00616669676C65652F50524F4D50726F6753
:10FDDE0072616D6D65720A0062205B64645D3C4504
:10FDEE006E7465723E202D207365742062697420D6
:10FDFE006E756D6265723B20626974206D757374E9
:10FE0E0020626520696E2072616E67652030302E2B
:10FE1E002E30370A0052657365617263682056652D
:10FE2E007273696F6E20312E312E32303234313290
:10FE3E003137206173206F6620446563203137208F
:10FE4E00323032342032303A31363A30350A0061AF
:10FE5E00205B4141415D413C456E7465723E202DF3
:10FE6E00207365742061646472657373205B414115
:10FE7E00415D41206F6E20636869702070696E73FA
:10FE8E000A005254342F5254352F5245332070727B
:10FE9E006F6772616D6D65723B2074797065206855
:10FEAE003C456E7465723E20666F722068656C709C
:10FEBE000A006D3C456E7465723E202D20746F678E
:10FECE00676C65206D6F6465207265332F727434B4
:10FEDE002F7274350A00633C456E7465723E202D98
:10FEEE0020746F67676C6573204353206F6E2063B9
:10FEFE006869700A00523C456E7465723E202D2072
:10FF0E007265616420656E746972652063686970DC
:10FF1E000A00563C456E7465723E202D2070726943
:10FF2E006E74732076657273696F6E0A00777269EC
:10FF3E007465202D206E6F6E206865782061646474
:10FF4E00726573730A007772697465202D206E6F67
:10FF5E006E2068657820646174610A007772697436
:10FF6E0065202D206E6F20616464726573730A00C4
:10FF7E00626974202D206E6F206865782062697327
:10FF8E000A00496E76616C696420636F6D6D616EF7
:10FF9E00640A00683C456E7465723E202D206865CB
:10FFAE006C700A0072656164206E6F206164647209
:10FFBE006573730A00312E312E32303234313231C4
:10FFCE00370A00436F6D6D616E64733A0A004F46D7
:10FFDE00460A004F4E0A0052453300525434005226
:10FFEE00543500612000722000772000240062004A
:01FFFE000002
:020000040020DA
:08000000FFFFFFFFFFFFFFFF00
:020000040030CA
:0E000000FF231F3CFFBD85FF0FC00FE00F4028
:00000001FF
